{
  "contractName": "ERC721",
  "abi": [
    {
      "anonymous": false,
      "inputs": [
        {
          "indexed": true,
          "internalType": "address",
          "name": "owner",
          "type": "address"
        },
        {
          "indexed": true,
          "internalType": "address",
          "name": "approved",
          "type": "address"
        },
        {
          "indexed": true,
          "internalType": "uint256",
          "name": "tokenId",
          "type": "uint256"
        }
      ],
      "name": "Approval",
      "type": "event"
    },
    {
      "anonymous": false,
      "inputs": [
        {
          "indexed": true,
          "internalType": "address",
          "name": "owner",
          "type": "address"
        },
        {
          "indexed": true,
          "internalType": "address",
          "name": "operator",
          "type": "address"
        },
        {
          "indexed": false,
          "internalType": "bool",
          "name": "approved",
          "type": "bool"
        }
      ],
      "name": "ApprovalForAll",
      "type": "event"
    },
    {
      "anonymous": false,
      "inputs": [
        {
          "indexed": true,
          "internalType": "address",
          "name": "from",
          "type": "address"
        },
        {
          "indexed": true,
          "internalType": "address",
          "name": "to",
          "type": "address"
        },
        {
          "indexed": true,
          "internalType": "uint256",
          "name": "tokenId",
          "type": "uint256"
        }
      ],
      "name": "Transfer",
      "type": "event"
    },
    {
      "inputs": [
        {
          "internalType": "bytes4",
          "name": "interfaceId",
          "type": "bytes4"
        }
      ],
      "name": "supportsInterface",
      "outputs": [
        {
          "internalType": "bool",
          "name": "",
          "type": "bool"
        }
      ],
      "stateMutability": "pure",
      "type": "function",
      "constant": true
    },
    {
      "inputs": [
        {
          "internalType": "address",
          "name": "owner",
          "type": "address"
        }
      ],
      "name": "balanceOf",
      "outputs": [
        {
          "internalType": "uint256",
          "name": "",
          "type": "uint256"
        }
      ],
      "stateMutability": "view",
      "type": "function",
      "constant": true
    },
    {
      "inputs": [
        {
          "internalType": "uint256",
          "name": "tokenId",
          "type": "uint256"
        }
      ],
      "name": "ownerOf",
      "outputs": [
        {
          "internalType": "address",
          "name": "owner",
          "type": "address"
        }
      ],
      "stateMutability": "view",
      "type": "function",
      "constant": true
    },
    {
      "inputs": [
        {
          "internalType": "address",
          "name": "owner",
          "type": "address"
        },
        {
          "internalType": "address",
          "name": "operator",
          "type": "address"
        }
      ],
      "name": "isApprovedForAll",
      "outputs": [
        {
          "internalType": "bool",
          "name": "",
          "type": "bool"
        }
      ],
      "stateMutability": "view",
      "type": "function",
      "constant": true
    },
    {
      "inputs": [
        {
          "internalType": "address",
          "name": "owner",
          "type": "address"
        },
        {
          "internalType": "address",
          "name": "operator",
          "type": "address"
        },
        {
          "internalType": "bool",
          "name": "approved",
          "type": "bool"
        }
      ],
      "name": "setApprovalForAll",
      "outputs": [],
      "stateMutability": "nonpayable",
      "type": "function"
    },
    {
      "inputs": [
        {
          "internalType": "uint256",
          "name": "tokenId",
          "type": "uint256"
        }
      ],
      "name": "getApproved",
      "outputs": [
        {
          "internalType": "address",
          "name": "",
          "type": "address"
        }
      ],
      "stateMutability": "view",
      "type": "function",
      "constant": true
    },
    {
      "inputs": [
        {
          "internalType": "address",
          "name": "to",
          "type": "address"
        },
        {
          "internalType": "uint256",
          "name": "tokenId",
          "type": "uint256"
        }
      ],
      "name": "approve",
      "outputs": [],
      "stateMutability": "nonpayable",
      "type": "function"
    },
    {
      "inputs": [
        {
          "internalType": "address",
          "name": "from",
          "type": "address"
        },
        {
          "internalType": "address",
          "name": "to",
          "type": "address"
        },
        {
          "internalType": "uint256",
          "name": "tokenId",
          "type": "uint256"
        }
      ],
      "name": "transferFrom",
      "outputs": [],
      "stateMutability": "nonpayable",
      "type": "function"
    },
    {
      "inputs": [
        {
          "internalType": "address",
          "name": "from",
          "type": "address"
        },
        {
          "internalType": "address",
          "name": "to",
          "type": "address"
        },
        {
          "internalType": "uint256",
          "name": "tokenId",
          "type": "uint256"
        }
      ],
      "name": "safeTransferFrom",
      "outputs": [],
      "stateMutability": "nonpayable",
      "type": "function"
    },
    {
      "inputs": [
        {
          "internalType": "address",
          "name": "from",
          "type": "address"
        },
        {
          "internalType": "address",
          "name": "to",
          "type": "address"
        },
        {
          "internalType": "uint256",
          "name": "tokenId",
          "type": "uint256"
        },
        {
          "internalType": "bytes",
          "name": "_data",
          "type": "bytes"
        }
      ],
      "name": "safeTransferFrom",
      "outputs": [],
      "stateMutability": "nonpayable",
      "type": "function"
    },
    {
      "inputs": [
        {
          "internalType": "address",
          "name": "to",
          "type": "address"
        },
        {
          "internalType": "uint256",
          "name": "tokenId",
          "type": "uint256"
        }
      ],
      "name": "mint",
      "outputs": [],
      "stateMutability": "nonpayable",
      "type": "function"
    },
    {
      "inputs": [
        {
          "internalType": "uint256",
          "name": "tokenId",
          "type": "uint256"
        }
      ],
      "name": "burn",
      "outputs": [],
      "stateMutability": "nonpayable",
      "type": "function"
    }
  ],
  "bytecode": "0x608060405234801561001057600080fd5b50611d28806100206000396000f3fe608060405234801561001057600080fd5b50600436106100b45760003560e01c806342842e0e1161007157806342842e0e1461018957806342966c68146101a55780636352211e146101c157806370a08231146101f1578063b88d4fde14610221578063e985e9c51461023d576100b4565b806301ffc9a7146100b9578063081812fc146100e9578063095ea7b31461011957806323b872dd14610135578063367605ca1461015157806340c10f191461016d575b600080fd5b6100d360048036038101906100ce91906114c9565b61026d565b6040516100e09190611758565b60405180910390f35b61010360048036038101906100fe9190611523565b61033f565b60405161011091906116f1565b60405180910390f35b610133600480360381019061012e9190611489565b61041d565b005b61014f600480360381019061014a91906113b3565b610563565b005b61016b60048036038101906101669190611360565b6105cc565b005b61018760048036038101906101829190611489565b6106ca565b005b6101a3600480360381019061019e91906113b3565b6108e2565b005b6101bf60048036038101906101ba9190611523565b610902565b005b6101db60048036038101906101d69190611523565b610a06565b6040516101e891906116f1565b60405180910390f35b61020b600480360381019061020691906112f3565b610ab2565b6040516102189190611893565b60405180910390f35b61023b60048036038101906102369190611406565b610b6a565b005b61025760048036038101906102529190611320565b610bd5565b6040516102649190611758565b60405180910390f35b60007f14f6e962000000000000000000000000000000000000000000000000000000007bffffffffffffffffffffffffffffffffffffffffffffffffffffffff1916827bffffffffffffffffffffffffffffffffffffffffffffffffffffffff1916148061033857507f01ffc9a7000000000000000000000000000000000000000000000000000000007bffffffffffffffffffffffffffffffffffffffffffffffffffffffff1916827bffffffffffffffffffffffffffffffffffffffffffffffffffffffff1916145b9050919050565b60008073ffffffffffffffffffffffffffffffffffffffff1660008084815260200190815260200160002060009054906101000a900473ffffffffffffffffffffffffffffffffffffffff1673ffffffffffffffffffffffffffffffffffffffff1614156103e2576040517f08c379a00000000000000000000000000000000000000000000000000000000081526004016103d9906117f3565b60405180910390fd5b6002600083815260200190815260200160002060009054906101000a900473ffffffffffffffffffffffffffffffffffffffff169050919050565b600080600083815260200190815260200160002060009054906101000a900473ffffffffffffffffffffffffffffffffffffffff1690508073ffffffffffffffffffffffffffffffffffffffff163373ffffffffffffffffffffffffffffffffffffffff1614806105145750600360008273ffffffffffffffffffffffffffffffffffffffff1673ffffffffffffffffffffffffffffffffffffffff16815260200190815260200160002060003373ffffffffffffffffffffffffffffffffffffffff1673ffffffffffffffffffffffffffffffffffffffff16815260200190815260200160002060009054906101000a900460ff165b610553576040517f08c379a000000000000000000000000000000000000000000000000000000000815260040161054a906117b3565b60405180910390fd5b61055e818484610c69565b505050565b600061056e82610a06565b905061057b813384610d1b565b6105ba576040517f08c379a00000000000000000000000000000000000000000000000000000000081526004016105b190611773565b60405180910390fd5b6105c681858585610e4f565b50505050565b80600360008573ffffffffffffffffffffffffffffffffffffffff1673ffffffffffffffffffffffffffffffffffffffff16815260200190815260200160002060008473ffffffffffffffffffffffffffffffffffffffff1673ffffffffffffffffffffffffffffffffffffffff16815260200190815260200160002060006101000a81548160ff0219169083151502179055508173ffffffffffffffffffffffffffffffffffffffff168373ffffffffffffffffffffffffffffffffffffffff167f17307eab39ab6107e8899845ad3d59bd9653f200f220920489ca2b5937696c31836040516106bd9190611758565b60405180910390a3505050565b600073ffffffffffffffffffffffffffffffffffffffff168273ffffffffffffffffffffffffffffffffffffffff16141561073a576040517f08c379a0000000000000000000000000000000000000000000000000000000008152600401610731906117d3565b60405180910390fd5b600073ffffffffffffffffffffffffffffffffffffffff1660008083815260200190815260200160002060009054906101000a900473ffffffffffffffffffffffffffffffffffffffff1673ffffffffffffffffffffffffffffffffffffffff16146107db576040517f08c379a00000000000000000000000000000000000000000000000000000000081526004016107d290611833565b60405180910390fd5b60018060008473ffffffffffffffffffffffffffffffffffffffff1673ffffffffffffffffffffffffffffffffffffffff168152602001908152602001600020600082825461082a9190611931565b925050819055508160008083815260200190815260200160002060006101000a81548173ffffffffffffffffffffffffffffffffffffffff021916908373ffffffffffffffffffffffffffffffffffffffff160217905550808273ffffffffffffffffffffffffffffffffffffffff16600073ffffffffffffffffffffffffffffffffffffffff167fddf252ad1be2c89b69c2b068fc378daa952ba7f163c4a11628f55a4df523b3ef60405160405180910390a45050565b6108fd83838360405180602001604052806000815250610b6a565b505050565b600061090d82610a06565b905061091b81600084610c69565b60018060008373ffffffffffffffffffffffffffffffffffffffff1673ffffffffffffffffffffffffffffffffffffffff168152602001908152602001600020600082825461096a9190611987565b9250508190555060008083815260200190815260200160002060006101000a81549073ffffffffffffffffffffffffffffffffffffffff021916905581600073ffffffffffffffffffffffffffffffffffffffff168273ffffffffffffffffffffffffffffffffffffffff167fddf252ad1be2c89b69c2b068fc378daa952ba7f163c4a11628f55a4df523b3ef60405160405180910390a45050565b600080600083815260200190815260200160002060009054906101000a900473ffffffffffffffffffffffffffffffffffffffff169050600073ffffffffffffffffffffffffffffffffffffffff168173ffffffffffffffffffffffffffffffffffffffff161415610aad576040517f08c379a0000000000000000000000000000000000000000000000000000000008152600401610aa4906117f3565b60405180910390fd5b919050565b60008073ffffffffffffffffffffffffffffffffffffffff168273ffffffffffffffffffffffffffffffffffffffff161415610b23576040517f08c379a0000000000000000000000000000000000000000000000000000000008152600401610b1a90611813565b60405180910390fd5b600160008373ffffffffffffffffffffffffffffffffffffffff1673ffffffffffffffffffffffffffffffffffffffff168152602001908152602001600020549050919050565b6000610b7583610a06565b9050610b82813385610d1b565b610bc1576040517f08c379a0000000000000000000000000000000000000000000000000000000008152600401610bb890611773565b60405180910390fd5b610bce8186868686611097565b5050505050565b6000600360008473ffffffffffffffffffffffffffffffffffffffff1673ffffffffffffffffffffffffffffffffffffffff16815260200190815260200160002060008373ffffffffffffffffffffffffffffffffffffffff1673ffffffffffffffffffffffffffffffffffffffff16815260200190815260200160002060009054906101000a900460ff16905092915050565b816002600083815260200190815260200160002060006101000a81548173ffffffffffffffffffffffffffffffffffffffff021916908373ffffffffffffffffffffffffffffffffffffffff160217905550808273ffffffffffffffffffffffffffffffffffffffff168473ffffffffffffffffffffffffffffffffffffffff167f8c5be1e5ebec7d5bd14f71427d1e84f3dd0314c0f7b2291e5b200ac8c7c3b92560405160405180910390a4505050565b60008373ffffffffffffffffffffffffffffffffffffffff168373ffffffffffffffffffffffffffffffffffffffff161480610db557508273ffffffffffffffffffffffffffffffffffffffff166002600084815260200190815260200160002060009054906101000a900473ffffffffffffffffffffffffffffffffffffffff1673ffffffffffffffffffffffffffffffffffffffff16145b80610e465750600360008573ffffffffffffffffffffffffffffffffffffffff1673ffffffffffffffffffffffffffffffffffffffff16815260200190815260200160002060008473ffffffffffffffffffffffffffffffffffffffff1673ffffffffffffffffffffffffffffffffffffffff16815260200190815260200160002060009054906101000a900460ff165b90509392505050565b8373ffffffffffffffffffffffffffffffffffffffff168373ffffffffffffffffffffffffffffffffffffffff1614610ebd576040517f08c379a0000000000000000000000000000000000000000000000000000000008152600401610eb490611873565b60405180910390fd5b600073ffffffffffffffffffffffffffffffffffffffff168273ffffffffffffffffffffffffffffffffffffffff161415610f2d576040517f08c379a0000000000000000000000000000000000000000000000000000000008152600401610f2490611793565b60405180910390fd5b610f3984600083610c69565b60018060008573ffffffffffffffffffffffffffffffffffffffff1673ffffffffffffffffffffffffffffffffffffffff1681526020019081526020016000206000828254610f889190611987565b9250508190555060018060008473ffffffffffffffffffffffffffffffffffffffff1673ffffffffffffffffffffffffffffffffffffffff1681526020019081526020016000206000828254610fde9190611931565b925050819055508160008083815260200190815260200160002060006101000a81548173ffffffffffffffffffffffffffffffffffffffff021916908373ffffffffffffffffffffffffffffffffffffffff160217905550808273ffffffffffffffffffffffffffffffffffffffff168473ffffffffffffffffffffffffffffffffffffffff167fddf252ad1be2c89b69c2b068fc378daa952ba7f163c4a11628f55a4df523b3ef60405160405180910390a450505050565b6110a385858585610e4f565b6110af848484846110f5565b6110ee576040517f08c379a00000000000000000000000000000000000000000000000000000000081526004016110e590611853565b60405180910390fd5b5050505050565b60006111168473ffffffffffffffffffffffffffffffffffffffff16611207565b156111fa5763150b7a0260e01b7bffffffffffffffffffffffffffffffffffffffffffffffffffffffff19168473ffffffffffffffffffffffffffffffffffffffff1663150b7a02338887876040518563ffffffff1660e01b8152600401611181949392919061170c565b602060405180830381600087803b15801561119b57600080fd5b505af11580156111af573d6000803e3d6000fd5b505050506040513d601f19601f820116820180604052508101906111d391906114f6565b7bffffffffffffffffffffffffffffffffffffffffffffffffffffffff19161490506111ff565b600190505b949350505050565b600080823b905060008111915050919050565b600061122d611228846118d3565b6118ae565b90508281526020810184848401111561124957611248611b05565b5b611254848285611a2f565b509392505050565b60008135905061126b81611c96565b92915050565b60008135905061128081611cad565b92915050565b60008135905061129581611cc4565b92915050565b6000815190506112aa81611cc4565b92915050565b600082601f8301126112c5576112c4611b00565b5b81356112d584826020860161121a565b91505092915050565b6000813590506112ed81611cdb565b92915050565b60006020828403121561130957611308611b0f565b5b60006113178482850161125c565b91505092915050565b6000806040838503121561133757611336611b0f565b5b60006113458582860161125c565b92505060206113568582860161125c565b9150509250929050565b60008060006060848603121561137957611378611b0f565b5b60006113878682870161125c565b93505060206113988682870161125c565b92505060406113a986828701611271565b9150509250925092565b6000806000606084860312156113cc576113cb611b0f565b5b60006113da8682870161125c565b93505060206113eb8682870161125c565b92505060406113fc868287016112de565b9150509250925092565b600080600080608085870312156114205761141f611b0f565b5b600061142e8782880161125c565b945050602061143f8782880161125c565b9350506040611450878288016112de565b925050606085013567ffffffffffffffff81111561147157611470611b0a565b5b61147d878288016112b0565b91505092959194509250565b600080604083850312156114a05761149f611b0f565b5b60006114ae8582860161125c565b92505060206114bf858286016112de565b9150509250929050565b6000602082840312156114df576114de611b0f565b5b60006114ed84828501611286565b91505092915050565b60006020828403121561150c5761150b611b0f565b5b600061151a8482850161129b565b91505092915050565b60006020828403121561153957611538611b0f565b5b6000611547848285016112de565b91505092915050565b611559816119bb565b82525050565b611568816119cd565b82525050565b600061157982611904565b611583818561190f565b9350611593818560208601611a3e565b61159c81611b14565b840191505092915050565b60006115b4601683611920565b91506115bf82611b25565b602082019050919050565b60006115d7601c83611920565b91506115e282611b4e565b602082019050919050565b60006115fa601e83611920565b915061160582611b77565b602082019050919050565b600061161d601483611920565b915061162882611ba0565b602082019050919050565b6000611640601383611920565b915061164b82611bc9565b602082019050919050565b6000611663601483611920565b915061166e82611bf2565b602082019050919050565b6000611686601483611920565b915061169182611c1b565b602082019050919050565b60006116a9601283611920565b91506116b482611c44565b602082019050919050565b60006116cc600983611920565b91506116d782611c6d565b602082019050919050565b6116eb81611a25565b82525050565b60006020820190506117066000830184611550565b92915050565b60006080820190506117216000830187611550565b61172e6020830186611550565b61173b60408301856116e2565b818103606083015261174d818461156e565b905095945050505050565b600060208201905061176d600083018461155f565b92915050565b6000602082019050818103600083015261178c816115a7565b9050919050565b600060208201905081810360008301526117ac816115ca565b9050919050565b600060208201905081810360008301526117cc816115ed565b9050919050565b600060208201905081810360008301526117ec81611610565b9050919050565b6000602082019050818103600083015261180c81611633565b9050919050565b6000602082019050818103600083015261182c81611656565b9050919050565b6000602082019050818103600083015261184c81611679565b9050919050565b6000602082019050818103600083015261186c8161169c565b9050919050565b6000602082019050818103600083015261188c816116bf565b9050919050565b60006020820190506118a860008301846116e2565b92915050565b60006118b86118c9565b90506118c48282611a71565b919050565b6000604051905090565b600067ffffffffffffffff8211156118ee576118ed611ad1565b5b6118f782611b14565b9050602081019050919050565b600081519050919050565b600082825260208201905092915050565b600082825260208201905092915050565b600061193c82611a25565b915061194783611a25565b9250827fffffffffffffffffffffffffffffffffffffffffffffffffffffffffffffffff0382111561197c5761197b611aa2565b5b828201905092915050565b600061199282611a25565b915061199d83611a25565b9250828210156119b0576119af611aa2565b5b828203905092915050565b60006119c682611a05565b9050919050565b60008115159050919050565b60007fffffffff0000000000000000000000000000000000000000000000000000000082169050919050565b600073ffffffffffffffffffffffffffffffffffffffff82169050919050565b6000819050919050565b82818337600083830152505050565b60005b83811015611a5c578082015181840152602081019050611a41565b83811115611a6b576000848401525b50505050565b611a7a82611b14565b810181811067ffffffffffffffff82111715611a9957611a98611ad1565b5b80604052505050565b7f4e487b7100000000000000000000000000000000000000000000000000000000600052601160045260246000fd5b7f4e487b7100000000000000000000000000000000000000000000000000000000600052604160045260246000fd5b600080fd5b600080fd5b600080fd5b600080fd5b6000601f19601f8301169050919050565b7f6e6f74206f776e6572206e6f7220617070726f76656400000000000000000000600082015250565b7f7472616e7366657220746f20746865207a65726f206164647265737300000000600082015250565b7f6e6f74206f776e6572206e6f7220617070726f76656420666f7220616c6c0000600082015250565b7f6d696e7420746f207a65726f2061646472657373000000000000000000000000600082015250565b7f746f6b656e20646f65736e277420657869737400000000000000000000000000600082015250565b7f6f776e6572203d207a65726f2061646472657373000000000000000000000000600082015250565b7f746f6b656e20616c7265616479206d696e746564000000000000000000000000600082015250565b7f6e6f742045524337323152656365697665720000000000000000000000000000600082015250565b7f6e6f74206f776e65720000000000000000000000000000000000000000000000600082015250565b611c9f816119bb565b8114611caa57600080fd5b50565b611cb6816119cd565b8114611cc157600080fd5b50565b611ccd816119d9565b8114611cd857600080fd5b50565b611ce481611a25565b8114611cef57600080fd5b5056fea2646970667358221220e30a15ec70b07caf903d7fbdfefa28347634c8da02fbb361fef816880ba2b24464736f6c63430008060033",
  "immutableReferences": {},
  "source": "pragma solidity ^0.8.6;\n\ninterface IERC165 {\n    function supportsInterface(bytes4 interfaceID) external view returns (bool);\n}\n\ninterface IERC721 is IERC165 {\n    function balanceOf(address owner) external view returns (uint balance);\n\n    function ownerOf(uint tokenId) external view returns (address owner);\n\n    function safeTransferFrom(\n        address from,\n        address to,\n        uint tokenId\n    ) external;\n\n    function safeTransferFrom(\n        address from,\n        address to,\n        uint tokenId,\n        bytes calldata data\n    ) external;\n\n    function transferFrom(\n        address from,\n        address to,\n        uint tokenId\n    ) external;\n\n    function approve(address to, uint tokenId) external;\n\n    function getApproved(uint tokenId) external view returns (address operator);\n\n    function setApprovalForAll(address owner,address operator, bool _approved) external;\n\n    function isApprovedForAll(address owner, address operator)\n    external\n    view\n    returns (bool);\n}\n\ninterface IERC721Receiver {\n    function onERC721Received(\n        address operator,\n        address from,\n        uint tokenId,\n        bytes calldata data\n    ) external returns (bytes4);\n}\n\ncontract ERC721 is IERC721 {\n    using Address for address;\n\n    event Transfer(address indexed from, address indexed to, uint indexed tokenId);\n    event Approval(\n        address indexed owner,\n        address indexed approved,\n        uint indexed tokenId\n    );\n    event ApprovalForAll(\n        address indexed owner,\n        address indexed operator,\n        bool approved\n    );\n\n    // Mapping from token ID to owner address\n    mapping(uint => address) private _owners;\n\n    // Mapping owner address to token count\n    mapping(address => uint) private _balances;\n\n    // Mapping from token ID to approved address\n    mapping(uint => address) private _tokenApprovals;\n\n    // Mapping from owner to operator approvals\n    mapping(address => mapping(address => bool)) private _operatorApprovals;\n\n    function supportsInterface(bytes4 interfaceId)\n    external\n    pure\n    override\n    returns (bool)\n    {\n        return\n        interfaceId == type(IERC721).interfaceId ||\n    interfaceId == type(IERC165).interfaceId;\n    }\n\n    function balanceOf(address owner) external view override returns (uint) {\n        require(owner != address(0), \"owner = zero address\");\n        return _balances[owner];\n    }\n\n    function ownerOf(uint tokenId) public view override returns (address owner) {\n        owner = _owners[tokenId];\n        require(owner != address(0), \"token doesn't exist\");\n    }\n\n    function isApprovedForAll(address owner, address operator)\n    external\n    view\n    override\n    returns (bool)\n    {\n        return _operatorApprovals[owner][operator];\n    }\n\n    function setApprovalForAll(address owner ,address operator, bool approved) external override {\n        _operatorApprovals[owner][operator] = approved;\n        emit ApprovalForAll(owner, operator, approved);\n    }\n\n\n    function getApproved(uint tokenId) external view override returns (address) {\n        require(_owners[tokenId] != address(0), \"token doesn't exist\");\n        return _tokenApprovals[tokenId];\n    }\n\n    function _approve(\n        address owner,\n        address to,\n        uint tokenId\n    ) private {\n        _tokenApprovals[tokenId] = to;\n        emit Approval(owner, to, tokenId);\n    }\n\n    function approve(address to, uint tokenId) external override {\n        address owner = _owners[tokenId];\n        require(\n            msg.sender == owner || _operatorApprovals[owner][msg.sender],\n            \"not owner nor approved for all\"\n        );\n        _approve(owner, to, tokenId);\n    }\n\n    function _isApprovedOrOwner(\n        address owner,\n        address spender,\n        uint tokenId\n    ) private view returns (bool) {\n        return (spender == owner ||\n        _tokenApprovals[tokenId] == spender ||\n        _operatorApprovals[owner][spender]);\n    }\n\n    function _transfer(\n        address owner,\n        address from,\n        address to,\n        uint tokenId\n    ) private {\n        require(from == owner, \"not owner\");\n        require(to != address(0), \"transfer to the zero address\");\n\n        _approve(owner, address(0), tokenId);\n\n        _balances[from] -= 1;\n        _balances[to] += 1;\n        _owners[tokenId] = to;\n\n        emit Transfer(from, to, tokenId);\n    }\n\n    function transferFrom(\n        address from,\n        address to,\n        uint tokenId\n    ) external override {\n        address owner = ownerOf(tokenId);\n        require(\n            _isApprovedOrOwner(owner, msg.sender, tokenId),\n            \"not owner nor approved\"\n        );\n        _transfer(owner, from, to, tokenId);\n    }\n\n    function _checkOnERC721Received(\n        address from,\n        address to,\n        uint tokenId,\n        bytes memory _data\n    ) private returns (bool) {\n        if (to.isContract()) {\n            return\n            IERC721Receiver(to).onERC721Received(\n                msg.sender,\n                from,\n                tokenId,\n                _data\n            ) == IERC721Receiver.onERC721Received.selector;\n        } else {\n            return true;\n        }\n    }\n\n    function _safeTransfer(\n        address owner,\n        address from,\n        address to,\n        uint tokenId,\n        bytes memory _data\n    ) private {\n        _transfer(owner, from, to, tokenId);\n        require(_checkOnERC721Received(from, to, tokenId, _data), \"not ERC721Receiver\");\n    }\n\n    function safeTransferFrom(\n        address from,\n        address to,\n        uint tokenId,\n        bytes memory _data\n    ) public override {\n        address owner = ownerOf(tokenId);\n        require(\n            _isApprovedOrOwner(owner, msg.sender, tokenId),\n            \"not owner nor approved\"\n        );\n        _safeTransfer(owner, from, to, tokenId, _data);\n    }\n\n    function safeTransferFrom(\n        address from,\n        address to,\n        uint tokenId\n    ) external override {\n        safeTransferFrom(from, to, tokenId, \"\");\n    }\n\n    function mint(address to, uint tokenId) external {\n        require(to != address(0), \"mint to zero address\");\n        require(_owners[tokenId] == address(0), \"token already minted\");\n\n        _balances[to] += 1;\n        _owners[tokenId] = to;\n\n        emit Transfer(address(0), to, tokenId);\n    }\n\n    function burn(uint tokenId) external {\n        address owner = ownerOf(tokenId);\n\n        _approve(owner, address(0), tokenId);\n\n        _balances[owner] -= 1;\n        delete _owners[tokenId];\n\n        emit Transfer(owner, address(0), tokenId);\n    }\n}\n\nlibrary Address {\n    function isContract(address account) internal view returns (bool) {\n        uint size;\n        assembly {\n            size := extcodesize(account)\n        }\n        return size > 0;\n    }\n}",
  "sourcePath": "/home/weilijie/go/src/xg-pro/MetaCoin/contracts/ERC721.sol",
  "compiler": {
    "name": "solc",
    "version": "0.8.6+commit.11564f7e.Emscripten.clang"
  },
  "schemaVersion": "3.4.7",
  "updatedAt": "2022-04-20T06:55:56.217Z",
  "networkType": "ethereum",
  "devdoc": {
    "kind": "dev",
    "methods": {},
    "version": 1
  },
  "userdoc": {
    "kind": "user",
    "methods": {},
    "version": 1
  }
}