{
  "contractName": "NFTT",
  "abi": [
    {
      "anonymous": false,
      "inputs": [
        {
          "indexed": true,
          "internalType": "address",
          "name": "owner",
          "type": "address"
        },
        {
          "indexed": true,
          "internalType": "address",
          "name": "approved",
          "type": "address"
        },
        {
          "indexed": true,
          "internalType": "uint256",
          "name": "tokenId",
          "type": "uint256"
        }
      ],
      "name": "Approval",
      "type": "event"
    },
    {
      "anonymous": false,
      "inputs": [
        {
          "indexed": true,
          "internalType": "address",
          "name": "owner",
          "type": "address"
        },
        {
          "indexed": true,
          "internalType": "address",
          "name": "operator",
          "type": "address"
        },
        {
          "indexed": false,
          "internalType": "bool",
          "name": "approved",
          "type": "bool"
        }
      ],
      "name": "ApprovalForAll",
      "type": "event"
    },
    {
      "anonymous": false,
      "inputs": [
        {
          "indexed": true,
          "internalType": "address",
          "name": "previousOwner",
          "type": "address"
        },
        {
          "indexed": true,
          "internalType": "address",
          "name": "newOwner",
          "type": "address"
        }
      ],
      "name": "OwnershipTransferred",
      "type": "event"
    },
    {
      "anonymous": false,
      "inputs": [
        {
          "indexed": true,
          "internalType": "address",
          "name": "from",
          "type": "address"
        },
        {
          "indexed": true,
          "internalType": "address",
          "name": "to",
          "type": "address"
        },
        {
          "indexed": true,
          "internalType": "uint256",
          "name": "tokenId",
          "type": "uint256"
        }
      ],
      "name": "Transfer",
      "type": "event"
    },
    {
      "inputs": [
        {
          "internalType": "address",
          "name": "to",
          "type": "address"
        },
        {
          "internalType": "uint256",
          "name": "tokenId",
          "type": "uint256"
        }
      ],
      "name": "approve",
      "outputs": [],
      "stateMutability": "nonpayable",
      "type": "function"
    },
    {
      "inputs": [
        {
          "internalType": "address",
          "name": "owner",
          "type": "address"
        }
      ],
      "name": "balanceOf",
      "outputs": [
        {
          "internalType": "uint256",
          "name": "",
          "type": "uint256"
        }
      ],
      "stateMutability": "view",
      "type": "function",
      "constant": true
    },
    {
      "inputs": [
        {
          "internalType": "uint256",
          "name": "tokenId",
          "type": "uint256"
        }
      ],
      "name": "getApproved",
      "outputs": [
        {
          "internalType": "address",
          "name": "",
          "type": "address"
        }
      ],
      "stateMutability": "view",
      "type": "function",
      "constant": true
    },
    {
      "inputs": [
        {
          "internalType": "address",
          "name": "owner",
          "type": "address"
        },
        {
          "internalType": "address",
          "name": "operator",
          "type": "address"
        }
      ],
      "name": "isApprovedForAll",
      "outputs": [
        {
          "internalType": "bool",
          "name": "",
          "type": "bool"
        }
      ],
      "stateMutability": "view",
      "type": "function",
      "constant": true
    },
    {
      "inputs": [],
      "name": "name",
      "outputs": [
        {
          "internalType": "string",
          "name": "",
          "type": "string"
        }
      ],
      "stateMutability": "view",
      "type": "function",
      "constant": true
    },
    {
      "inputs": [],
      "name": "owner",
      "outputs": [
        {
          "internalType": "address",
          "name": "",
          "type": "address"
        }
      ],
      "stateMutability": "view",
      "type": "function",
      "constant": true
    },
    {
      "inputs": [
        {
          "internalType": "uint256",
          "name": "tokenId",
          "type": "uint256"
        }
      ],
      "name": "ownerOf",
      "outputs": [
        {
          "internalType": "address",
          "name": "",
          "type": "address"
        }
      ],
      "stateMutability": "view",
      "type": "function",
      "constant": true
    },
    {
      "inputs": [],
      "name": "renounceOwnership",
      "outputs": [],
      "stateMutability": "nonpayable",
      "type": "function"
    },
    {
      "inputs": [
        {
          "internalType": "address",
          "name": "from",
          "type": "address"
        },
        {
          "internalType": "address",
          "name": "to",
          "type": "address"
        },
        {
          "internalType": "uint256",
          "name": "tokenId",
          "type": "uint256"
        }
      ],
      "name": "safeTransferFrom",
      "outputs": [],
      "stateMutability": "nonpayable",
      "type": "function"
    },
    {
      "inputs": [
        {
          "internalType": "address",
          "name": "from",
          "type": "address"
        },
        {
          "internalType": "address",
          "name": "to",
          "type": "address"
        },
        {
          "internalType": "uint256",
          "name": "tokenId",
          "type": "uint256"
        },
        {
          "internalType": "bytes",
          "name": "_data",
          "type": "bytes"
        }
      ],
      "name": "safeTransferFrom",
      "outputs": [],
      "stateMutability": "nonpayable",
      "type": "function"
    },
    {
      "inputs": [
        {
          "internalType": "address",
          "name": "operator",
          "type": "address"
        },
        {
          "internalType": "bool",
          "name": "approved",
          "type": "bool"
        }
      ],
      "name": "setApprovalForAll",
      "outputs": [],
      "stateMutability": "nonpayable",
      "type": "function"
    },
    {
      "inputs": [
        {
          "internalType": "bytes4",
          "name": "interfaceId",
          "type": "bytes4"
        }
      ],
      "name": "supportsInterface",
      "outputs": [
        {
          "internalType": "bool",
          "name": "",
          "type": "bool"
        }
      ],
      "stateMutability": "view",
      "type": "function",
      "constant": true
    },
    {
      "inputs": [],
      "name": "symbol",
      "outputs": [
        {
          "internalType": "string",
          "name": "",
          "type": "string"
        }
      ],
      "stateMutability": "view",
      "type": "function",
      "constant": true
    },
    {
      "inputs": [
        {
          "internalType": "uint256",
          "name": "tokenId",
          "type": "uint256"
        }
      ],
      "name": "tokenURI",
      "outputs": [
        {
          "internalType": "string",
          "name": "",
          "type": "string"
        }
      ],
      "stateMutability": "view",
      "type": "function",
      "constant": true
    },
    {
      "inputs": [
        {
          "internalType": "address",
          "name": "from",
          "type": "address"
        },
        {
          "internalType": "address",
          "name": "to",
          "type": "address"
        },
        {
          "internalType": "uint256",
          "name": "tokenId",
          "type": "uint256"
        }
      ],
      "name": "transferFrom",
      "outputs": [],
      "stateMutability": "nonpayable",
      "type": "function"
    },
    {
      "inputs": [
        {
          "internalType": "address",
          "name": "newOwner",
          "type": "address"
        }
      ],
      "name": "transferOwnership",
      "outputs": [],
      "stateMutability": "nonpayable",
      "type": "function"
    },
    {
      "inputs": [],
      "name": "initialize",
      "outputs": [],
      "stateMutability": "nonpayable",
      "type": "function"
    },
    {
      "inputs": [],
      "name": "getBaseURIIII",
      "outputs": [
        {
          "internalType": "string",
          "name": "",
          "type": "string"
        }
      ],
      "stateMutability": "nonpayable",
      "type": "function"
    },
    {
      "inputs": [
        {
          "internalType": "string",
          "name": "_newBaseURI",
          "type": "string"
        }
      ],
      "name": "setBaseURI",
      "outputs": [],
      "stateMutability": "nonpayable",
      "type": "function"
    },
    {
      "inputs": [],
      "name": "getAllOnSale",
      "outputs": [
        {
          "components": [
            {
              "internalType": "uint256",
              "name": "id",
              "type": "uint256"
            },
            {
              "internalType": "uint256",
              "name": "price",
              "type": "uint256"
            },
            {
              "internalType": "string",
              "name": "name",
              "type": "string"
            },
            {
              "internalType": "string",
              "name": "uri",
              "type": "string"
            },
            {
              "internalType": "bool",
              "name": "sale",
              "type": "bool"
            }
          ],
          "internalType": "struct NFTT.TokenMeta[]",
          "name": "",
          "type": "tuple[]"
        }
      ],
      "stateMutability": "view",
      "type": "function",
      "constant": true
    },
    {
      "inputs": [
        {
          "internalType": "uint256",
          "name": "_tokenId",
          "type": "uint256"
        },
        {
          "internalType": "bool",
          "name": "_sale",
          "type": "bool"
        },
        {
          "internalType": "uint256",
          "name": "_price",
          "type": "uint256"
        }
      ],
      "name": "setTokenSale",
      "outputs": [],
      "stateMutability": "nonpayable",
      "type": "function"
    },
    {
      "inputs": [
        {
          "internalType": "uint256",
          "name": "_tokenId",
          "type": "uint256"
        },
        {
          "internalType": "uint256",
          "name": "_price",
          "type": "uint256"
        }
      ],
      "name": "setTokenPrice",
      "outputs": [],
      "stateMutability": "nonpayable",
      "type": "function"
    },
    {
      "inputs": [
        {
          "internalType": "uint256",
          "name": "tokenId",
          "type": "uint256"
        }
      ],
      "name": "tokenPrice",
      "outputs": [
        {
          "internalType": "uint256",
          "name": "",
          "type": "uint256"
        }
      ],
      "stateMutability": "view",
      "type": "function",
      "constant": true
    },
    {
      "inputs": [
        {
          "internalType": "uint256",
          "name": "_tokenId",
          "type": "uint256"
        }
      ],
      "name": "tokenMeta",
      "outputs": [
        {
          "components": [
            {
              "internalType": "uint256",
              "name": "id",
              "type": "uint256"
            },
            {
              "internalType": "uint256",
              "name": "price",
              "type": "uint256"
            },
            {
              "internalType": "string",
              "name": "name",
              "type": "string"
            },
            {
              "internalType": "string",
              "name": "uri",
              "type": "string"
            },
            {
              "internalType": "bool",
              "name": "sale",
              "type": "bool"
            }
          ],
          "internalType": "struct NFTT.TokenMeta",
          "name": "",
          "type": "tuple"
        }
      ],
      "stateMutability": "view",
      "type": "function",
      "constant": true
    },
    {
      "inputs": [
        {
          "internalType": "uint256",
          "name": "_tokenId",
          "type": "uint256"
        }
      ],
      "name": "purchaseToken",
      "outputs": [],
      "stateMutability": "payable",
      "type": "function",
      "payable": true
    },
    {
      "inputs": [
        {
          "internalType": "address",
          "name": "_owner",
          "type": "address"
        },
        {
          "internalType": "string",
          "name": "_tokenURI",
          "type": "string"
        },
        {
          "internalType": "string",
          "name": "_name",
          "type": "string"
        },
        {
          "internalType": "uint256",
          "name": "_price",
          "type": "uint256"
        },
        {
          "internalType": "bool",
          "name": "_sale",
          "type": "bool"
        }
      ],
      "name": "mintCollectable",
      "outputs": [
        {
          "internalType": "uint256",
          "name": "",
          "type": "uint256"
        }
      ],
      "stateMutability": "nonpayable",
      "type": "function"
    }
  ],
  "bytecode": "0x608060405234801561001057600080fd5b50614504806100206000396000f3fe6080604052600436106101815760003560e01c80637553f4d4116100d1578063b88d4fde1161008a578063d4ddce8a11610064578063d4ddce8a14610571578063e985e9c5146105ae578063eb685c47146105eb578063f2fde38b1461061457610181565b8063b88d4fde146104ef578063c2db2c4214610518578063c87b56dd1461053457610181565b80637553f4d4146104035780638129fc1c1461042e5780638da5cb5b14610445578063908945591461047057806395d89b411461049b578063a22cb465146104c657610181565b806339b444361161013e5780636352211e116101185780636352211e146103495780636387ede61461038657806370a08231146103af578063715018a6146103ec57610181565b806339b44436146102ba57806342842e0e146102f757806355f804b31461032057610181565b806301ffc9a71461018657806306fdde03146101c3578063081812fc146101ee578063095ea7b31461022b5780630ae7a3101461025457806323b872dd14610291575b600080fd5b34801561019257600080fd5b506101ad60048036038101906101a89190612eba565b61063d565b6040516101ba9190613676565b60405180910390f35b3480156101cf57600080fd5b506101d861071f565b6040516101e59190613691565b60405180910390f35b3480156101fa57600080fd5b5061021560048036038101906102109190612f5d565b6107b1565b60405161022291906135ed565b60405180910390f35b34801561023757600080fd5b50610252600480360381019061024d9190612e7a565b610836565b005b34801561026057600080fd5b5061027b60048036038101906102769190612f5d565b61094e565b6040516102889190613973565b60405180910390f35b34801561029d57600080fd5b506102b860048036038101906102b39190612cb1565b610ae0565b005b3480156102c657600080fd5b506102e160048036038101906102dc9190612dc7565b610b40565b6040516102ee9190613995565b60405180910390f35b34801561030357600080fd5b5061031e60048036038101906103199190612cb1565b610c32565b005b34801561032c57600080fd5b5061034760048036038101906103429190612f14565b610c52565b005b34801561035557600080fd5b50610370600480360381019061036b9190612f5d565b610ce8565b60405161037d91906135ed565b60405180910390f35b34801561039257600080fd5b506103ad60048036038101906103a89190612f8a565b610d9a565b005b3480156103bb57600080fd5b506103d660048036038101906103d19190612c44565b610e73565b6040516103e39190613995565b60405180910390f35b3480156103f857600080fd5b50610401610f2b565b005b34801561040f57600080fd5b50610418610fb3565b6040516104259190613691565b60405180910390f35b34801561043a57600080fd5b50610443610fc2565b005b34801561045157600080fd5b5061045a61114b565b60405161046791906135ed565b60405180910390f35b34801561047c57600080fd5b50610485611175565b6040516104929190613654565b60405180910390f35b3480156104a757600080fd5b506104b06113e7565b6040516104bd9190613691565b60405180910390f35b3480156104d257600080fd5b506104ed60048036038101906104e89190612d87565b611479565b005b3480156104fb57600080fd5b5061051660048036038101906105119190612d04565b61148f565b005b610532600480360381019061052d9190612f5d565b6114f1565b005b34801561054057600080fd5b5061055b60048036038101906105569190612f5d565b611681565b6040516105689190613691565b60405180910390f35b34801561057d57600080fd5b5061059860048036038101906105939190612f5d565b611728565b6040516105a59190613995565b60405180910390f35b3480156105ba57600080fd5b506105d560048036038101906105d09190612c71565b611790565b6040516105e29190613676565b60405180910390f35b3480156105f757600080fd5b50610612600480360381019061060d9190612fdd565b611824565b005b34801561062057600080fd5b5061063b60048036038101906106369190612c44565b6118d2565b005b60007f80ac58cd000000000000000000000000000000000000000000000000000000007bffffffffffffffffffffffffffffffffffffffffffffffffffffffff1916827bffffffffffffffffffffffffffffffffffffffffffffffffffffffff1916148061070857507f5b5e139f000000000000000000000000000000000000000000000000000000007bffffffffffffffffffffffffffffffffffffffffffffffffffffffff1916827bffffffffffffffffffffffffffffffffffffffffffffffffffffffff1916145b806107185750610717826119ca565b5b9050919050565b60606065805461072e90613c35565b80601f016020809104026020016040519081016040528092919081815260200182805461075a90613c35565b80156107a75780601f1061077c576101008083540402835291602001916107a7565b820191906000526020600020905b81548152906001019060200180831161078a57829003601f168201915b5050505050905090565b60006107bc82611a34565b6107fb576040517f08c379a00000000000000000000000000000000000000000000000000000000081526004016107f290613853565b60405180910390fd5b6069600083815260200190815260200160002060009054906101000a900473ffffffffffffffffffffffffffffffffffffffff169050919050565b600061084182610ce8565b90508073ffffffffffffffffffffffffffffffffffffffff168373ffffffffffffffffffffffffffffffffffffffff1614156108b2576040517f08c379a00000000000000000000000000000000000000000000000000000000081526004016108a9906138d3565b60405180910390fd5b8073ffffffffffffffffffffffffffffffffffffffff166108d1611aa0565b73ffffffffffffffffffffffffffffffffffffffff16148061090057506108ff816108fa611aa0565b611790565b5b61093f576040517f08c379a000000000000000000000000000000000000000000000000000000000815260040161093690613793565b60405180910390fd5b6109498383611aa8565b505050565b610956612a27565b61095f82611a34565b61096857600080fd5b60fc60008381526020019081526020016000206040518060a001604052908160008201548152602001600182015481526020016002820180546109aa90613c35565b80601f01602080910402602001604051908101604052809291908181526020018280546109d690613c35565b8015610a235780601f106109f857610100808354040283529160200191610a23565b820191906000526020600020905b815481529060010190602001808311610a0657829003601f168201915b50505050508152602001600382018054610a3c90613c35565b80601f0160208091040260200160405190810160405280929190818152602001828054610a6890613c35565b8015610ab55780601f10610a8a57610100808354040283529160200191610ab5565b820191906000526020600020905b815481529060010190602001808311610a9857829003601f168201915b505050505081526020016004820160009054906101000a900460ff1615151515815250509050919050565b610af1610aeb611aa0565b82611b61565b610b30576040517f08c379a0000000000000000000000000000000000000000000000000000000008152600401610b27906138f3565b60405180910390fd5b610b3b838383611c3f565b505050565b6000610b4a611aa0565b73ffffffffffffffffffffffffffffffffffffffff16610b6861114b565b73ffffffffffffffffffffffffffffffffffffffff1614610bbe576040517f08c379a0000000000000000000000000000000000000000000000000000000008152600401610bb590613873565b60405180910390fd5b60008311610bcb57600080fd5b610bd560fb611ea6565b6000610be160fb611ebc565b9050610bed8782611eca565b60006040518060a001604052808381526020018681526020018781526020018881526020018515158152509050610c2482826120a4565b819250505095945050505050565b610c4d8383836040518060200160405280600081525061148f565b505050565b610c5a611aa0565b73ffffffffffffffffffffffffffffffffffffffff16610c7861114b565b73ffffffffffffffffffffffffffffffffffffffff1614610cce576040517f08c379a0000000000000000000000000000000000000000000000000000000008152600401610cc590613873565b60405180910390fd5b8060fd9080519060200190610ce4929190612a58565b5050565b6000806067600084815260200190815260200160002060009054906101000a900473ffffffffffffffffffffffffffffffffffffffff169050600073ffffffffffffffffffffffffffffffffffffffff168173ffffffffffffffffffffffffffffffffffffffff161415610d91576040517f08c379a0000000000000000000000000000000000000000000000000000000008152600401610d88906137d3565b60405180910390fd5b80915050919050565b610da383611a34565b610de2576040517f08c379a0000000000000000000000000000000000000000000000000000000008152600401610dd990613913565b60405180910390fd5b60008111610def57600080fd5b610df7611aa0565b73ffffffffffffffffffffffffffffffffffffffff16610e1684610ce8565b73ffffffffffffffffffffffffffffffffffffffff1614610e3657600080fd5b8160fc600085815260200190815260200160002060040160006101000a81548160ff021916908315150217905550610e6e8382611824565b505050565b60008073ffffffffffffffffffffffffffffffffffffffff168273ffffffffffffffffffffffffffffffffffffffff161415610ee4576040517f08c379a0000000000000000000000000000000000000000000000000000000008152600401610edb906137b3565b60405180910390fd5b606860008373ffffffffffffffffffffffffffffffffffffffff1673ffffffffffffffffffffffffffffffffffffffff168152602001908152602001600020549050919050565b610f33611aa0565b73ffffffffffffffffffffffffffffffffffffffff16610f5161114b565b73ffffffffffffffffffffffffffffffffffffffff1614610fa7576040517f08c379a0000000000000000000000000000000000000000000000000000000008152600401610f9e90613873565b60405180910390fd5b610fb16000612186565b565b6060610fbd61224c565b905090565b600060019054906101000a900460ff16610fea5760008054906101000a900460ff1615610ff3565b610ff26122de565b5b611032576040517f08c379a0000000000000000000000000000000000000000000000000000000008152600401611029906137f3565b60405180910390fd5b60008060019054906101000a900460ff161590508015611082576001600060016101000a81548160ff02191690831515021790555060016000806101000a81548160ff0219169083151502179055505b61108a6122ef565b611092612348565b6111066040518060400160405280600481526020017f4e465454000000000000000000000000000000000000000000000000000000008152506040518060400160405280600481526020017f4e465454000000000000000000000000000000000000000000000000000000008152506123a1565b61112760405180608001604052806044815260200161448b60449139610c52565b80156111485760008060016101000a81548160ff0219169083151502179055505b50565b6000609760009054906101000a900473ffffffffffffffffffffffffffffffffffffffff16905090565b6060600061118360fb611ebc565b67ffffffffffffffff81111561119c5761119b613dce565b5b6040519080825280602002602001820160405280156111d557816020015b6111c2612a27565b8152602001906001900390816111ba5790505b509050600080600190505b60016111ec60fb611ebc565b6111f69190613ac4565b8110156113de576001151560fc600083815260200190815260200160002060040160009054906101000a900460ff16151514156113cb5760fc60008281526020019081526020016000206040518060a0016040529081600082015481526020016001820154815260200160028201805461126f90613c35565b80601f016020809104026020016040519081016040528092919081815260200182805461129b90613c35565b80156112e85780601f106112bd576101008083540402835291602001916112e8565b820191906000526020600020905b8154815290600101906020018083116112cb57829003601f168201915b5050505050815260200160038201805461130190613c35565b80601f016020809104026020016040519081016040528092919081815260200182805461132d90613c35565b801561137a5780601f1061134f5761010080835404028352916020019161137a565b820191906000526020600020905b81548152906001019060200180831161135d57829003601f168201915b505050505081526020016004820160009054906101000a900460ff1615151515815250508383815181106113b1576113b0613d9f565b5b602002602001018190525081806113c790613c98565b9250505b80806113d690613c98565b9150506111e0565b50819250505090565b6060606680546113f690613c35565b80601f016020809104026020016040519081016040528092919081815260200182805461142290613c35565b801561146f5780601f106114445761010080835404028352916020019161146f565b820191906000526020600020905b81548152906001019060200180831161145257829003601f168201915b5050505050905090565b61148b611484611aa0565b83836123fe565b5050565b6114a061149a611aa0565b83611b61565b6114df576040517f08c379a00000000000000000000000000000000000000000000000000000000081526004016114d6906138f3565b60405180910390fd5b6114eb8484848461256b565b50505050565b600260c9541415611537576040517f08c379a000000000000000000000000000000000000000000000000000000000815260040161152e90613953565b60405180910390fd5b600260c981905550600073ffffffffffffffffffffffffffffffffffffffff163373ffffffffffffffffffffffffffffffffffffffff16141580156115b0575061158081610ce8565b73ffffffffffffffffffffffffffffffffffffffff163373ffffffffffffffffffffffffffffffffffffffff1614155b6115b957600080fd5b60fc6000828152602001908152602001600020600101543410156115dc57600080fd5b60006115e782610ce8565b90508073ffffffffffffffffffffffffffffffffffffffff166108fc349081150290604051600060405180830381858888f1935050505015801561162f573d6000803e3d6000fd5b5061163b816001611479565b611646813384611c3f565b600060fc600084815260200190815260200160002060040160006101000a81548160ff02191690831515021790555050600160c98190555050565b606061168c82611a34565b6116cb576040517f08c379a00000000000000000000000000000000000000000000000000000000081526004016116c2906138b3565b60405180910390fd5b60006116d561224c565b905060008151116116f55760405180602001604052806000815250611720565b806116ff846125c7565b6040516020016117109291906135c9565b6040516020818303038152906040525b915050919050565b600061173382611a34565b611772576040517f08c379a000000000000000000000000000000000000000000000000000000000815260040161176990613813565b60405180910390fd5b60fc6000838152602001908152602001600020600101549050919050565b6000606a60008473ffffffffffffffffffffffffffffffffffffffff1673ffffffffffffffffffffffffffffffffffffffff16815260200190815260200160002060008373ffffffffffffffffffffffffffffffffffffffff1673ffffffffffffffffffffffffffffffffffffffff16815260200190815260200160002060009054906101000a900460ff16905092915050565b61182d82611a34565b61186c576040517f08c379a000000000000000000000000000000000000000000000000000000000815260040161186390613893565b60405180910390fd5b611874611aa0565b73ffffffffffffffffffffffffffffffffffffffff1661189383610ce8565b73ffffffffffffffffffffffffffffffffffffffff16146118b357600080fd5b8060fc6000848152602001908152602001600020600101819055505050565b6118da611aa0565b73ffffffffffffffffffffffffffffffffffffffff166118f861114b565b73ffffffffffffffffffffffffffffffffffffffff161461194e576040517f08c379a000000000000000000000000000000000000000000000000000000000815260040161194590613873565b60405180910390fd5b600073ffffffffffffffffffffffffffffffffffffffff168173ffffffffffffffffffffffffffffffffffffffff1614156119be576040517f08c379a00000000000000000000000000000000000000000000000000000000081526004016119b5906136d3565b60405180910390fd5b6119c781612186565b50565b60007f01ffc9a7000000000000000000000000000000000000000000000000000000007bffffffffffffffffffffffffffffffffffffffffffffffffffffffff1916827bffffffffffffffffffffffffffffffffffffffffffffffffffffffff1916149050919050565b60008073ffffffffffffffffffffffffffffffffffffffff166067600084815260200190815260200160002060009054906101000a900473ffffffffffffffffffffffffffffffffffffffff1673ffffffffffffffffffffffffffffffffffffffff1614159050919050565b600033905090565b816069600083815260200190815260200160002060006101000a81548173ffffffffffffffffffffffffffffffffffffffff021916908373ffffffffffffffffffffffffffffffffffffffff160217905550808273ffffffffffffffffffffffffffffffffffffffff16611b1b83610ce8565b73ffffffffffffffffffffffffffffffffffffffff167f8c5be1e5ebec7d5bd14f71427d1e84f3dd0314c0f7b2291e5b200ac8c7c3b92560405160405180910390a45050565b6000611b6c82611a34565b611bab576040517f08c379a0000000000000000000000000000000000000000000000000000000008152600401611ba290613773565b60405180910390fd5b6000611bb683610ce8565b90508073ffffffffffffffffffffffffffffffffffffffff168473ffffffffffffffffffffffffffffffffffffffff161480611c2557508373ffffffffffffffffffffffffffffffffffffffff16611c0d846107b1565b73ffffffffffffffffffffffffffffffffffffffff16145b80611c365750611c358185611790565b5b91505092915050565b8273ffffffffffffffffffffffffffffffffffffffff16611c5f82610ce8565b73ffffffffffffffffffffffffffffffffffffffff1614611cb5576040517f08c379a0000000000000000000000000000000000000000000000000000000008152600401611cac906136f3565b60405180910390fd5b600073ffffffffffffffffffffffffffffffffffffffff168273ffffffffffffffffffffffffffffffffffffffff161415611d25576040517f08c379a0000000000000000000000000000000000000000000000000000000008152600401611d1c90613733565b60405180910390fd5b611d30838383612728565b611d3b600082611aa8565b6001606860008573ffffffffffffffffffffffffffffffffffffffff1673ffffffffffffffffffffffffffffffffffffffff1681526020019081526020016000206000828254611d8b9190613b4b565b925050819055506001606860008473ffffffffffffffffffffffffffffffffffffffff1673ffffffffffffffffffffffffffffffffffffffff1681526020019081526020016000206000828254611de29190613ac4565b92505081905550816067600083815260200190815260200160002060006101000a81548173ffffffffffffffffffffffffffffffffffffffff021916908373ffffffffffffffffffffffffffffffffffffffff160217905550808273ffffffffffffffffffffffffffffffffffffffff168473ffffffffffffffffffffffffffffffffffffffff167fddf252ad1be2c89b69c2b068fc378daa952ba7f163c4a11628f55a4df523b3ef60405160405180910390a4611ea183838361272d565b505050565b6001816000016000828254019250508190555050565b600081600001549050919050565b600073ffffffffffffffffffffffffffffffffffffffff168273ffffffffffffffffffffffffffffffffffffffff161415611f3a576040517f08c379a0000000000000000000000000000000000000000000000000000000008152600401611f3190613833565b60405180910390fd5b611f4381611a34565b15611f83576040517f08c379a0000000000000000000000000000000000000000000000000000000008152600401611f7a90613713565b60405180910390fd5b611f8f60008383612728565b6001606860008473ffffffffffffffffffffffffffffffffffffffff1673ffffffffffffffffffffffffffffffffffffffff1681526020019081526020016000206000828254611fdf9190613ac4565b92505081905550816067600083815260200190815260200160002060006101000a81548173ffffffffffffffffffffffffffffffffffffffff021916908373ffffffffffffffffffffffffffffffffffffffff160217905550808273ffffffffffffffffffffffffffffffffffffffff16600073ffffffffffffffffffffffffffffffffffffffff167fddf252ad1be2c89b69c2b068fc378daa952ba7f163c4a11628f55a4df523b3ef60405160405180910390a46120a06000838361272d565b5050565b6120ad82611a34565b6120b657600080fd5b6120be611aa0565b73ffffffffffffffffffffffffffffffffffffffff166120dd83610ce8565b73ffffffffffffffffffffffffffffffffffffffff16146120fd57600080fd5b8060fc600084815260200190815260200160002060008201518160000155602082015181600101556040820151816002019080519060200190612141929190612a58565b50606082015181600301908051906020019061215e929190612a58565b5060808201518160040160006101000a81548160ff0219169083151502179055509050505050565b6000609760009054906101000a900473ffffffffffffffffffffffffffffffffffffffff16905081609760006101000a81548173ffffffffffffffffffffffffffffffffffffffff021916908373ffffffffffffffffffffffffffffffffffffffff1602179055508173ffffffffffffffffffffffffffffffffffffffff168173ffffffffffffffffffffffffffffffffffffffff167f8be0079c531659141344cd1fd0a4f28419497f9722a3daafe3b4186f6b6457e060405160405180910390a35050565b606060fd805461225b90613c35565b80601f016020809104026020016040519081016040528092919081815260200182805461228790613c35565b80156122d45780601f106122a9576101008083540402835291602001916122d4565b820191906000526020600020905b8154815290600101906020018083116122b757829003601f168201915b5050505050905090565b60006122e930612732565b15905090565b600060019054906101000a900460ff1661233e576040517f08c379a000000000000000000000000000000000000000000000000000000000815260040161233590613933565b60405180910390fd5b612346612755565b565b600060019054906101000a900460ff16612397576040517f08c379a000000000000000000000000000000000000000000000000000000000815260040161238e90613933565b60405180910390fd5b61239f6127b6565b565b600060019054906101000a900460ff166123f0576040517f08c379a00000000000000000000000000000000000000000000000000000000081526004016123e790613933565b60405180910390fd5b6123fa828261280f565b5050565b8173ffffffffffffffffffffffffffffffffffffffff168373ffffffffffffffffffffffffffffffffffffffff16141561246d576040517f08c379a000000000000000000000000000000000000000000000000000000000815260040161246490613753565b60405180910390fd5b80606a60008573ffffffffffffffffffffffffffffffffffffffff1673ffffffffffffffffffffffffffffffffffffffff16815260200190815260200160002060008473ffffffffffffffffffffffffffffffffffffffff1673ffffffffffffffffffffffffffffffffffffffff16815260200190815260200160002060006101000a81548160ff0219169083151502179055508173ffffffffffffffffffffffffffffffffffffffff168373ffffffffffffffffffffffffffffffffffffffff167f17307eab39ab6107e8899845ad3d59bd9653f200f220920489ca2b5937696c318360405161255e9190613676565b60405180910390a3505050565b612576848484611c3f565b61258284848484612890565b6125c1576040517f08c379a00000000000000000000000000000000000000000000000000000000081526004016125b8906136b3565b60405180910390fd5b50505050565b6060600082141561260f576040518060400160405280600181526020017f30000000000000000000000000000000000000000000000000000000000000008152509050612723565b600082905060005b6000821461264157808061262a90613c98565b915050600a8261263a9190613b1a565b9150612617565b60008167ffffffffffffffff81111561265d5761265c613dce565b5b6040519080825280601f01601f19166020018201604052801561268f5781602001600182028036833780820191505090505b5090505b6000851461271c576001826126a89190613b4b565b9150600a856126b79190613ce1565b60306126c39190613ac4565b60f81b8183815181106126d9576126d8613d9f565b5b60200101907effffffffffffffffffffffffffffffffffffffffffffffffffffffffffffff1916908160001a905350600a856127159190613b1a565b9450612693565b8093505050505b919050565b505050565b505050565b6000808273ffffffffffffffffffffffffffffffffffffffff163b119050919050565b600060019054906101000a900460ff166127a4576040517f08c379a000000000000000000000000000000000000000000000000000000000815260040161279b90613933565b60405180910390fd5b6127b46127af611aa0565b612186565b565b600060019054906101000a900460ff16612805576040517f08c379a00000000000000000000000000000000000000000000000000000000081526004016127fc90613933565b60405180910390fd5b600160c981905550565b600060019054906101000a900460ff1661285e576040517f08c379a000000000000000000000000000000000000000000000000000000000815260040161285590613933565b60405180910390fd5b8160659080519060200190612874929190612a58565b50806066908051906020019061288b929190612a58565b505050565b60006128b18473ffffffffffffffffffffffffffffffffffffffff16612732565b15612a1a578373ffffffffffffffffffffffffffffffffffffffff1663150b7a026128da611aa0565b8786866040518563ffffffff1660e01b81526004016128fc9493929190613608565b602060405180830381600087803b15801561291657600080fd5b505af192505050801561294757506040513d601f19601f820116820180604052508101906129449190612ee7565b60015b6129ca573d8060008114612977576040519150601f19603f3d011682016040523d82523d6000602084013e61297c565b606091505b506000815114156129c2576040517f08c379a00000000000000000000000000000000000000000000000000000000081526004016129b9906136b3565b60405180910390fd5b805181602001fd5b63150b7a0260e01b7bffffffffffffffffffffffffffffffffffffffffffffffffffffffff1916817bffffffffffffffffffffffffffffffffffffffffffffffffffffffff191614915050612a1f565b600190505b949350505050565b6040518060a00160405280600081526020016000815260200160608152602001606081526020016000151581525090565b828054612a6490613c35565b90600052602060002090601f016020900481019282612a865760008555612acd565b82601f10612a9f57805160ff1916838001178555612acd565b82800160010185558215612acd579182015b82811115612acc578251825591602001919060010190612ab1565b5b509050612ada9190612ade565b5090565b5b80821115612af7576000816000905550600101612adf565b5090565b6000612b0e612b09846139d5565b6139b0565b905082815260208101848484011115612b2a57612b29613e02565b5b612b35848285613bf3565b509392505050565b6000612b50612b4b84613a06565b6139b0565b905082815260208101848484011115612b6c57612b6b613e02565b5b612b77848285613bf3565b509392505050565b600081359050612b8e8161442e565b92915050565b600081359050612ba381614445565b92915050565b600081359050612bb88161445c565b92915050565b600081519050612bcd8161445c565b92915050565b600082601f830112612be857612be7613dfd565b5b8135612bf8848260208601612afb565b91505092915050565b600082601f830112612c1657612c15613dfd565b5b8135612c26848260208601612b3d565b91505092915050565b600081359050612c3e81614473565b92915050565b600060208284031215612c5a57612c59613e0c565b5b6000612c6884828501612b7f565b91505092915050565b60008060408385031215612c8857612c87613e0c565b5b6000612c9685828601612b7f565b9250506020612ca785828601612b7f565b9150509250929050565b600080600060608486031215612cca57612cc9613e0c565b5b6000612cd886828701612b7f565b9350506020612ce986828701612b7f565b9250506040612cfa86828701612c2f565b9150509250925092565b60008060008060808587031215612d1e57612d1d613e0c565b5b6000612d2c87828801612b7f565b9450506020612d3d87828801612b7f565b9350506040612d4e87828801612c2f565b925050606085013567ffffffffffffffff811115612d6f57612d6e613e07565b5b612d7b87828801612bd3565b91505092959194509250565b60008060408385031215612d9e57612d9d613e0c565b5b6000612dac85828601612b7f565b9250506020612dbd85828601612b94565b9150509250929050565b600080600080600060a08688031215612de357612de2613e0c565b5b6000612df188828901612b7f565b955050602086013567ffffffffffffffff811115612e1257612e11613e07565b5b612e1e88828901612c01565b945050604086013567ffffffffffffffff811115612e3f57612e3e613e07565b5b612e4b88828901612c01565b9350506060612e5c88828901612c2f565b9250506080612e6d88828901612b94565b9150509295509295909350565b60008060408385031215612e9157612e90613e0c565b5b6000612e9f85828601612b7f565b9250506020612eb085828601612c2f565b9150509250929050565b600060208284031215612ed057612ecf613e0c565b5b6000612ede84828501612ba9565b91505092915050565b600060208284031215612efd57612efc613e0c565b5b6000612f0b84828501612bbe565b91505092915050565b600060208284031215612f2a57612f29613e0c565b5b600082013567ffffffffffffffff811115612f4857612f47613e07565b5b612f5484828501612c01565b91505092915050565b600060208284031215612f7357612f72613e0c565b5b6000612f8184828501612c2f565b91505092915050565b600080600060608486031215612fa357612fa2613e0c565b5b6000612fb186828701612c2f565b9350506020612fc286828701612b94565b9250506040612fd386828701612c2f565b9150509250925092565b60008060408385031215612ff457612ff3613e0c565b5b600061300285828601612c2f565b925050602061301385828601612c2f565b9150509250929050565b600061302983836134b1565b905092915050565b61303a81613b7f565b82525050565b600061304b82613a47565b6130558185613a75565b93508360208202850161306785613a37565b8060005b858110156130a35784840389528151613084858261301d565b945061308f83613a68565b925060208a0199505060018101905061306b565b50829750879550505050505092915050565b6130be81613b91565b82525050565b6130cd81613b91565b82525050565b60006130de82613a52565b6130e88185613a86565b93506130f8818560208601613c02565b61310181613e11565b840191505092915050565b600061311782613a5d565b6131218185613a97565b9350613131818560208601613c02565b61313a81613e11565b840191505092915050565b600061315082613a5d565b61315a8185613aa8565b935061316a818560208601613c02565b61317381613e11565b840191505092915050565b600061318982613a5d565b6131938185613ab9565b93506131a3818560208601613c02565b80840191505092915050565b60006131bc603283613aa8565b91506131c782613e22565b604082019050919050565b60006131df602683613aa8565b91506131ea82613e71565b604082019050919050565b6000613202602583613aa8565b915061320d82613ec0565b604082019050919050565b6000613225601c83613aa8565b915061323082613f0f565b602082019050919050565b6000613248602483613aa8565b915061325382613f38565b604082019050919050565b600061326b601983613aa8565b915061327682613f87565b602082019050919050565b600061328e602c83613aa8565b915061329982613fb0565b604082019050919050565b60006132b1603883613aa8565b91506132bc82613fff565b604082019050919050565b60006132d4602a83613aa8565b91506132df8261404e565b604082019050919050565b60006132f7602983613aa8565b91506133028261409d565b604082019050919050565b600061331a602e83613aa8565b9150613325826140ec565b604082019050919050565b600061333d603183613aa8565b91506133488261413b565b604082019050919050565b6000613360602083613aa8565b915061336b8261418a565b602082019050919050565b6000613383602c83613aa8565b915061338e826141b3565b604082019050919050565b60006133a6602083613aa8565b91506133b182614202565b602082019050919050565b60006133c9602e83613aa8565b91506133d48261422b565b604082019050919050565b60006133ec602f83613aa8565b91506133f78261427a565b604082019050919050565b600061340f602183613aa8565b915061341a826142c9565b604082019050919050565b6000613432603183613aa8565b915061343d82614318565b604082019050919050565b6000613455602d83613aa8565b915061346082614367565b604082019050919050565b6000613478602b83613aa8565b9150613483826143b6565b604082019050919050565b600061349b601f83613aa8565b91506134a682614405565b602082019050919050565b600060a0830160008301516134c960008601826135ab565b5060208301516134dc60208601826135ab565b50604083015184820360408601526134f4828261310c565b9150506060830151848203606086015261350e828261310c565b915050608083015161352360808601826130b5565b508091505092915050565b600060a08301600083015161354660008601826135ab565b50602083015161355960208601826135ab565b5060408301518482036040860152613571828261310c565b9150506060830151848203606086015261358b828261310c565b91505060808301516135a060808601826130b5565b508091505092915050565b6135b481613be9565b82525050565b6135c381613be9565b82525050565b60006135d5828561317e565b91506135e1828461317e565b91508190509392505050565b60006020820190506136026000830184613031565b92915050565b600060808201905061361d6000830187613031565b61362a6020830186613031565b61363760408301856135ba565b818103606083015261364981846130d3565b905095945050505050565b6000602082019050818103600083015261366e8184613040565b905092915050565b600060208201905061368b60008301846130c4565b92915050565b600060208201905081810360008301526136ab8184613145565b905092915050565b600060208201905081810360008301526136cc816131af565b9050919050565b600060208201905081810360008301526136ec816131d2565b9050919050565b6000602082019050818103600083015261370c816131f5565b9050919050565b6000602082019050818103600083015261372c81613218565b9050919050565b6000602082019050818103600083015261374c8161323b565b9050919050565b6000602082019050818103600083015261376c8161325e565b9050919050565b6000602082019050818103600083015261378c81613281565b9050919050565b600060208201905081810360008301526137ac816132a4565b9050919050565b600060208201905081810360008301526137cc816132c7565b9050919050565b600060208201905081810360008301526137ec816132ea565b9050919050565b6000602082019050818103600083015261380c8161330d565b9050919050565b6000602082019050818103600083015261382c81613330565b9050919050565b6000602082019050818103600083015261384c81613353565b9050919050565b6000602082019050818103600083015261386c81613376565b9050919050565b6000602082019050818103600083015261388c81613399565b9050919050565b600060208201905081810360008301526138ac816133bc565b9050919050565b600060208201905081810360008301526138cc816133df565b9050919050565b600060208201905081810360008301526138ec81613402565b9050919050565b6000602082019050818103600083015261390c81613425565b9050919050565b6000602082019050818103600083015261392c81613448565b9050919050565b6000602082019050818103600083015261394c8161346b565b9050919050565b6000602082019050818103600083015261396c8161348e565b9050919050565b6000602082019050818103600083015261398d818461352e565b905092915050565b60006020820190506139aa60008301846135ba565b92915050565b60006139ba6139cb565b90506139c68282613c67565b919050565b6000604051905090565b600067ffffffffffffffff8211156139f0576139ef613dce565b5b6139f982613e11565b9050602081019050919050565b600067ffffffffffffffff821115613a2157613a20613dce565b5b613a2a82613e11565b9050602081019050919050565b6000819050602082019050919050565b600081519050919050565b600081519050919050565b600081519050919050565b6000602082019050919050565b600082825260208201905092915050565b600082825260208201905092915050565b600082825260208201905092915050565b600082825260208201905092915050565b600081905092915050565b6000613acf82613be9565b9150613ada83613be9565b9250827fffffffffffffffffffffffffffffffffffffffffffffffffffffffffffffffff03821115613b0f57613b0e613d12565b5b828201905092915050565b6000613b2582613be9565b9150613b3083613be9565b925082613b4057613b3f613d41565b5b828204905092915050565b6000613b5682613be9565b9150613b6183613be9565b925082821015613b7457613b73613d12565b5b828203905092915050565b6000613b8a82613bc9565b9050919050565b60008115159050919050565b60007fffffffff0000000000000000000000000000000000000000000000000000000082169050919050565b600073ffffffffffffffffffffffffffffffffffffffff82169050919050565b6000819050919050565b82818337600083830152505050565b60005b83811015613c20578082015181840152602081019050613c05565b83811115613c2f576000848401525b50505050565b60006002820490506001821680613c4d57607f821691505b60208210811415613c6157613c60613d70565b5b50919050565b613c7082613e11565b810181811067ffffffffffffffff82111715613c8f57613c8e613dce565b5b80604052505050565b6000613ca382613be9565b91507fffffffffffffffffffffffffffffffffffffffffffffffffffffffffffffffff821415613cd657613cd5613d12565b5b600182019050919050565b6000613cec82613be9565b9150613cf783613be9565b925082613d0757613d06613d41565b5b828206905092915050565b7f4e487b7100000000000000000000000000000000000000000000000000000000600052601160045260246000fd5b7f4e487b7100000000000000000000000000000000000000000000000000000000600052601260045260246000fd5b7f4e487b7100000000000000000000000000000000000000000000000000000000600052602260045260246000fd5b7f4e487b7100000000000000000000000000000000000000000000000000000000600052603260045260246000fd5b7f4e487b7100000000000000000000000000000000000000000000000000000000600052604160045260246000fd5b600080fd5b600080fd5b600080fd5b600080fd5b6000601f19601f8301169050919050565b7f4552433732313a207472616e7366657220746f206e6f6e20455243373231526560008201527f63656976657220696d706c656d656e7465720000000000000000000000000000602082015250565b7f4f776e61626c653a206e6577206f776e657220697320746865207a65726f206160008201527f6464726573730000000000000000000000000000000000000000000000000000602082015250565b7f4552433732313a207472616e736665722066726f6d20696e636f72726563742060008201527f6f776e6572000000000000000000000000000000000000000000000000000000602082015250565b7f4552433732313a20746f6b656e20616c7265616479206d696e74656400000000600082015250565b7f4552433732313a207472616e7366657220746f20746865207a65726f2061646460008201527f7265737300000000000000000000000000000000000000000000000000000000602082015250565b7f4552433732313a20617070726f766520746f2063616c6c657200000000000000600082015250565b7f4552433732313a206f70657261746f7220717565727920666f72206e6f6e657860008201527f697374656e7420746f6b656e0000000000000000000000000000000000000000602082015250565b7f4552433732313a20617070726f76652063616c6c6572206973206e6f74206f7760008201527f6e6572206e6f7220617070726f76656420666f7220616c6c0000000000000000602082015250565b7f4552433732313a2062616c616e636520717565727920666f7220746865207a6560008201527f726f206164647265737300000000000000000000000000000000000000000000602082015250565b7f4552433732313a206f776e657220717565727920666f72206e6f6e657869737460008201527f656e7420746f6b656e0000000000000000000000000000000000000000000000602082015250565b7f496e697469616c697a61626c653a20636f6e747261637420697320616c72656160008201527f647920696e697469616c697a6564000000000000000000000000000000000000602082015250565b7f4552433732314d657461646174613a20507269636520717565727920666f722060008201527f6e6f6e6578697374656e7420746f6b656e000000000000000000000000000000602082015250565b7f4552433732313a206d696e7420746f20746865207a65726f2061646472657373600082015250565b7f4552433732313a20617070726f76656420717565727920666f72206e6f6e657860008201527f697374656e7420746f6b656e0000000000000000000000000000000000000000602082015250565b7f4f776e61626c653a2063616c6c6572206973206e6f7420746865206f776e6572600082015250565b7f4552433732314d657461646174613a20507269636520736574206f66206e6f6e60008201527f6578697374656e7420746f6b656e000000000000000000000000000000000000602082015250565b7f4552433732314d657461646174613a2055524920717565727920666f72206e6f60008201527f6e6578697374656e7420746f6b656e0000000000000000000000000000000000602082015250565b7f4552433732313a20617070726f76616c20746f2063757272656e74206f776e6560008201527f7200000000000000000000000000000000000000000000000000000000000000602082015250565b7f4552433732313a207472616e736665722063616c6c6572206973206e6f74206f60008201527f776e6572206e6f7220617070726f766564000000000000000000000000000000602082015250565b7f4552433732314d657461646174613a2053616c6520736574206f66206e6f6e6560008201527f78697374656e7420746f6b656e00000000000000000000000000000000000000602082015250565b7f496e697469616c697a61626c653a20636f6e7472616374206973206e6f74206960008201527f6e697469616c697a696e67000000000000000000000000000000000000000000602082015250565b7f5265656e7472616e637947756172643a207265656e7472616e742063616c6c00600082015250565b61443781613b7f565b811461444257600080fd5b50565b61444e81613b91565b811461445957600080fd5b50565b61446581613b9d565b811461447057600080fd5b50565b61447c81613be9565b811461448757600080fd5b5056fe68747470733a2f2f726832357132347476662e657865637574652d6170692e65752d776573742d322e616d617a6f6e6177732e636f6d2f6465762f746f6b656e3f69643da26469706673582212206bc2607af751c295b7ca52c8c3b8c535cab02b4f89881ce40f81301777e44ed264736f6c63430008060033",
  "immutableReferences": {},
  "source": "// SPDX-License-Identifier: MIT\npragma solidity ^0.8.6;\npragma experimental ABIEncoderV2;\n\nimport \"../node_modules/@openzeppelin/contracts-upgradeable/token/ERC721/ERC721Upgradeable.sol\";\nimport \"../node_modules/@openzeppelin/contracts-upgradeable/access/OwnableUpgradeable.sol\";\nimport \"../node_modules/@openzeppelin/contracts-upgradeable/security/ReentrancyGuardUpgradeable.sol\";\nimport \"../node_modules/@openzeppelin/contracts-upgradeable/utils/CountersUpgradeable.sol\";\n\ncontract NFTT is ERC721Upgradeable, OwnableUpgradeable, ReentrancyGuardUpgradeable {\n    using CountersUpgradeable for CountersUpgradeable.Counter;\n    CountersUpgradeable.Counter private _tokenIds;\n\n    mapping (uint256 => TokenMeta) private _tokenMeta;\n\n    string baseURI;\n\n    struct TokenMeta {\n        uint256 id;\n        uint256 price;\n        string name;\n        string uri;\n        bool sale;\n    }\n\n    function initialize() public initializer {\n        OwnableUpgradeable.__Ownable_init();\n        ReentrancyGuardUpgradeable.__ReentrancyGuard_init();\n        ERC721Upgradeable.__ERC721_init(\"NFTT\", \"NFTT\");\n        setBaseURI(\"https://rh25q24tvf.execute-api.eu-west-2.amazonaws.com/dev/token?id=\");\n    }\n\n    /**\n     * @dev Base URI for computing {tokenURI}. Empty by default, can be overriden\n     * in child contracts.\n     */\n    function _baseURI() internal view override virtual returns (string memory) {\n        return baseURI;\n    }\n\n    function getBaseURIIII() public  virtual returns (string memory) {\n        return _baseURI();\n    }\n\n\n    function setBaseURI(string memory _newBaseURI) public virtual onlyOwner {\n        baseURI = _newBaseURI;\n    }\n\n    function getAllOnSale () public view virtual returns( TokenMeta[] memory ) {\n        TokenMeta[] memory tokensOnSale = new TokenMeta[](_tokenIds.current());\n        uint256 counter = 0;\n\n        for(uint i = 1; i < _tokenIds.current() + 1; i++) {\n            if(_tokenMeta[i].sale == true) {\n                tokensOnSale[counter] = _tokenMeta[i];\n                counter++;\n            }\n        }\n        return tokensOnSale;\n    }\n\n    /**\n     * @dev sets maps token to its price\n     * @param _tokenId uint256 token ID (token number)\n     * @param _sale bool token on sale\n     * @param _price unit256 token price\n     *\n     * Requirements:\n     * `tokenId` must exist\n     * `price` must be more than 0\n     * `owner` must the msg.owner\n     */\n    function setTokenSale(uint256 _tokenId, bool _sale, uint256 _price) public {\n        require(_exists(_tokenId), \"ERC721Metadata: Sale set of nonexistent token\");\n        require(_price > 0);\n        require(ownerOf(_tokenId) == _msgSender());\n\n        _tokenMeta[_tokenId].sale = _sale;\n        setTokenPrice(_tokenId, _price);\n    }\n\n    /**\n     * @dev sets maps token to its price\n     * @param _tokenId uint256 token ID (token number)\n     * @param _price uint256 token price\n     *\n     * Requirements:\n     * `tokenId` must exist\n     * `owner` must the msg.owner\n     */\n    function setTokenPrice(uint256 _tokenId, uint256 _price) public {\n        require(_exists(_tokenId), \"ERC721Metadata: Price set of nonexistent token\");\n        require(ownerOf(_tokenId) == _msgSender());\n        _tokenMeta[_tokenId].price = _price;\n    }\n\n    function tokenPrice(uint256 tokenId) public view virtual returns (uint256) {\n        require(_exists(tokenId), \"ERC721Metadata: Price query for nonexistent token\");\n        return _tokenMeta[tokenId].price;\n    }\n\n    /**\n     * @dev sets token meta\n     * @param _tokenId uint256 token ID (token number)\n     * @param _meta TokenMeta\n     *\n     * Requirements:\n     * `tokenId` must exist\n     * `owner` must the msg.owner\n     */\n    function _setTokenMeta(uint256 _tokenId, TokenMeta memory _meta) private {\n        require(_exists(_tokenId));\n        require(ownerOf(_tokenId) == _msgSender());\n        _tokenMeta[_tokenId] = _meta;\n    }\n\n    function tokenMeta(uint256 _tokenId) public view returns (TokenMeta memory) {\n        require(_exists(_tokenId));\n        return _tokenMeta[_tokenId];\n    }\n\n    /**\n     * @dev purchase _tokenId\n     * @param _tokenId uint256 token ID (token number)\n     */\n    function purchaseToken(uint256 _tokenId) public payable nonReentrant {\n        require(msg.sender != address(0) && msg.sender != ownerOf(_tokenId));\n        require(msg.value >= _tokenMeta[_tokenId].price);\n        address tokenSeller = ownerOf(_tokenId);\n\n        payable(tokenSeller).transfer(msg.value);\n\n        setApprovalForAll(tokenSeller, true);\n        _transfer(tokenSeller, msg.sender, _tokenId);\n        _tokenMeta[_tokenId].sale = false;\n    }\n\n    function mintCollectable(\n        address _owner,\n        string memory _tokenURI,\n        string memory _name,\n        uint256 _price,\n        bool _sale\n    )\n    public\n    onlyOwner\n    returns (uint256)\n    {\n        require(_price > 0);\n\n        _tokenIds.increment();\n\n        uint256 newItemId = _tokenIds.current();\n        _mint(_owner, newItemId);\n\n        TokenMeta memory meta = TokenMeta(newItemId, _price, _name, _tokenURI, _sale);\n        _setTokenMeta(newItemId, meta);\n\n        return newItemId;\n    }\n}",
  "sourcePath": "/home/weilijie/go/src/xg-pro/MetaCoin/contracts/NFT.sol",
  "compiler": {
    "name": "solc",
    "version": "0.8.6+commit.11564f7e.Emscripten.clang"
  },
  "schemaVersion": "3.4.7",
  "updatedAt": "2022-04-20T06:55:56.579Z",
  "networkType": "ethereum",
  "devdoc": {
    "kind": "dev",
    "methods": {
      "approve(address,uint256)": {
        "details": "See {IERC721-approve}."
      },
      "balanceOf(address)": {
        "details": "See {IERC721-balanceOf}."
      },
      "getApproved(uint256)": {
        "details": "See {IERC721-getApproved}."
      },
      "isApprovedForAll(address,address)": {
        "details": "See {IERC721-isApprovedForAll}."
      },
      "name()": {
        "details": "See {IERC721Metadata-name}."
      },
      "owner()": {
        "details": "Returns the address of the current owner."
      },
      "ownerOf(uint256)": {
        "details": "See {IERC721-ownerOf}."
      },
      "purchaseToken(uint256)": {
        "details": "purchase _tokenId",
        "params": {
          "_tokenId": "uint256 token ID (token number)"
        }
      },
      "renounceOwnership()": {
        "details": "Leaves the contract without owner. It will not be possible to call `onlyOwner` functions anymore. Can only be called by the current owner. NOTE: Renouncing ownership will leave the contract without an owner, thereby removing any functionality that is only available to the owner."
      },
      "safeTransferFrom(address,address,uint256)": {
        "details": "See {IERC721-safeTransferFrom}."
      },
      "safeTransferFrom(address,address,uint256,bytes)": {
        "details": "See {IERC721-safeTransferFrom}."
      },
      "setApprovalForAll(address,bool)": {
        "details": "See {IERC721-setApprovalForAll}."
      },
      "setTokenPrice(uint256,uint256)": {
        "details": "sets maps token to its price",
        "params": {
          "_price": "uint256 token price Requirements: `tokenId` must exist `owner` must the msg.owner",
          "_tokenId": "uint256 token ID (token number)"
        }
      },
      "setTokenSale(uint256,bool,uint256)": {
        "details": "sets maps token to its price",
        "params": {
          "_price": "unit256 token price Requirements: `tokenId` must exist `price` must be more than 0 `owner` must the msg.owner",
          "_sale": "bool token on sale",
          "_tokenId": "uint256 token ID (token number)"
        }
      },
      "supportsInterface(bytes4)": {
        "details": "See {IERC165-supportsInterface}."
      },
      "symbol()": {
        "details": "See {IERC721Metadata-symbol}."
      },
      "tokenURI(uint256)": {
        "details": "See {IERC721Metadata-tokenURI}."
      },
      "transferFrom(address,address,uint256)": {
        "details": "See {IERC721-transferFrom}."
      },
      "transferOwnership(address)": {
        "details": "Transfers ownership of the contract to a new account (`newOwner`). Can only be called by the current owner."
      }
    },
    "version": 1
  },
  "userdoc": {
    "kind": "user",
    "methods": {},
    "version": 1
  }
}